{
  "contractName": "Faucet",
  "abi": [
    {
      "inputs": [
        {
          "internalType": "address",
          "name": "renaToken",
          "type": "address"
        },
        {
          "internalType": "uint256",
          "name": "amount",
          "type": "uint256"
        }
      ],
      "stateMutability": "nonpayable",
      "type": "constructor"
    },
    {
      "anonymous": false,
      "inputs": [
        {
          "indexed": true,
          "internalType": "address",
          "name": "previousOwner",
          "type": "address"
        },
        {
          "indexed": true,
          "internalType": "address",
          "name": "newOwner",
          "type": "address"
        }
      ],
      "name": "OwnershipTransferred",
      "type": "event"
    },
    {
      "inputs": [],
      "name": "owner",
      "outputs": [
        {
          "internalType": "address",
          "name": "",
          "type": "address"
        }
      ],
      "stateMutability": "view",
      "type": "function",
      "constant": true
    },
    {
      "inputs": [],
      "name": "renounceOwnership",
      "outputs": [],
      "stateMutability": "nonpayable",
      "type": "function"
    },
    {
      "inputs": [
        {
          "internalType": "address",
          "name": "newOwner",
          "type": "address"
        }
      ],
      "name": "transferOwnership",
      "outputs": [],
      "stateMutability": "nonpayable",
      "type": "function"
    },
    {
      "inputs": [],
      "name": "claim",
      "outputs": [],
      "stateMutability": "nonpayable",
      "type": "function"
    },
    {
      "inputs": [
        {
          "internalType": "uint256",
          "name": "amount",
          "type": "uint256"
        },
        {
          "internalType": "address",
          "name": "receiver",
          "type": "address"
        }
      ],
      "name": "transferOut",
      "outputs": [],
      "stateMutability": "nonpayable",
      "type": "function"
    }
  ],
  "bytecode": "0x60806040523480156200001157600080fd5b5060405162000d4338038062000d438339818101604052810190620000379190620001a1565b620000576200004b620000a760201b60201c565b620000af60201b60201c565b81600160006101000a81548173ffffffffffffffffffffffffffffffffffffffff021916908373ffffffffffffffffffffffffffffffffffffffff16021790555080600281905550505062000254565b600033905090565b60008060009054906101000a900473ffffffffffffffffffffffffffffffffffffffff169050816000806101000a81548173ffffffffffffffffffffffffffffffffffffffff021916908373ffffffffffffffffffffffffffffffffffffffff1602179055508173ffffffffffffffffffffffffffffffffffffffff168173ffffffffffffffffffffffffffffffffffffffff167f8be0079c531659141344cd1fd0a4f28419497f9722a3daafe3b4186f6b6457e060405160405180910390a35050565b600081519050620001848162000220565b92915050565b6000815190506200019b816200023a565b92915050565b60008060408385031215620001b557600080fd5b6000620001c58582860162000173565b9250506020620001d8858286016200018a565b9150509250929050565b6000620001ef82620001f6565b9050919050565b600073ffffffffffffffffffffffffffffffffffffffff82169050919050565b6000819050919050565b6200022b81620001e2565b81146200023757600080fd5b50565b620002458162000216565b81146200025157600080fd5b50565b610adf80620002646000396000f3fe608060405234801561001057600080fd5b50600436106100575760003560e01c806317c59b241461005c5780634e71d92d14610078578063715018a6146100825780638da5cb5b1461008c578063f2fde38b146100aa575b600080fd5b610076600480360381019061007191906107c7565b6100c6565b005b6100806101f6565b005b61008a610483565b005b61009461050b565b6040516100a19190610947565b60405180910390f35b6100c460048036038101906100bf919061074c565b610534565b005b6100ce61062c565b73ffffffffffffffffffffffffffffffffffffffff166100ec61050b565b73ffffffffffffffffffffffffffffffffffffffff1614610142576040517f08c379a0000000000000000000000000000000000000000000000000000000008152600401610139906109cb565b60405180910390fd5b600160009054906101000a900473ffffffffffffffffffffffffffffffffffffffff1673ffffffffffffffffffffffffffffffffffffffff1663a9059cbb82846040518363ffffffff1660e01b815260040161019f929190610962565b602060405180830381600087803b1580156101b957600080fd5b505af11580156101cd573d6000803e3d6000fd5b505050506040513d601f19601f820116820180604052508101906101f19190610775565b505050565b60001515600360003373ffffffffffffffffffffffffffffffffffffffff1673ffffffffffffffffffffffffffffffffffffffff16815260200190815260200160002060009054906101000a900460ff16151514610289576040517f08c379a0000000000000000000000000000000000000000000000000000000008152600401610280906109ab565b60405180910390fd5b600254600160009054906101000a900473ffffffffffffffffffffffffffffffffffffffff1673ffffffffffffffffffffffffffffffffffffffff166370a08231306040518263ffffffff1660e01b81526004016102e79190610947565b60206040518083038186803b1580156102ff57600080fd5b505afa158015610313573d6000803e3d6000fd5b505050506040513d601f19601f82011682018060405250810190610337919061079e565b11610377576040517f08c379a000000000000000000000000000000000000000000000000000000000815260040161036e906109eb565b60405180910390fd5b600160009054906101000a900473ffffffffffffffffffffffffffffffffffffffff1673ffffffffffffffffffffffffffffffffffffffff1663a9059cbb336002546040518363ffffffff1660e01b81526004016103d6929190610962565b602060405180830381600087803b1580156103f057600080fd5b505af1158015610404573d6000803e3d6000fd5b505050506040513d601f19601f820116820180604052508101906104289190610775565b506001600360003373ffffffffffffffffffffffffffffffffffffffff1673ffffffffffffffffffffffffffffffffffffffff16815260200190815260200160002060006101000a81548160ff021916908315150217905550565b61048b61062c565b73ffffffffffffffffffffffffffffffffffffffff166104a961050b565b73ffffffffffffffffffffffffffffffffffffffff16146104ff576040517f08c379a00000000000000000000000000000000000000000000000000000000081526004016104f6906109cb565b60405180910390fd5b6105096000610634565b565b60008060009054906101000a900473ffffffffffffffffffffffffffffffffffffffff16905090565b61053c61062c565b73ffffffffffffffffffffffffffffffffffffffff1661055a61050b565b73ffffffffffffffffffffffffffffffffffffffff16146105b0576040517f08c379a00000000000000000000000000000000000000000000000000000000081526004016105a7906109cb565b60405180910390fd5b600073ffffffffffffffffffffffffffffffffffffffff168173ffffffffffffffffffffffffffffffffffffffff161415610620576040517f08c379a00000000000000000000000000000000000000000000000000000000081526004016106179061098b565b60405180910390fd5b61062981610634565b50565b600033905090565b60008060009054906101000a900473ffffffffffffffffffffffffffffffffffffffff169050816000806101000a81548173ffffffffffffffffffffffffffffffffffffffff021916908373ffffffffffffffffffffffffffffffffffffffff1602179055508173ffffffffffffffffffffffffffffffffffffffff168173ffffffffffffffffffffffffffffffffffffffff167f8be0079c531659141344cd1fd0a4f28419497f9722a3daafe3b4186f6b6457e060405160405180910390a35050565b60008135905061070781610a64565b92915050565b60008151905061071c81610a7b565b92915050565b60008135905061073181610a92565b92915050565b60008151905061074681610a92565b92915050565b60006020828403121561075e57600080fd5b600061076c848285016106f8565b91505092915050565b60006020828403121561078757600080fd5b60006107958482850161070d565b91505092915050565b6000602082840312156107b057600080fd5b60006107be84828501610737565b91505092915050565b600080604083850312156107da57600080fd5b60006107e885828601610722565b92505060206107f9858286016106f8565b9150509250929050565b61080c81610a1c565b82525050565b600061081f602683610a0b565b91507f4f776e61626c653a206e6577206f776e657220697320746865207a65726f206160008301527f64647265737300000000000000000000000000000000000000000000000000006020830152604082019050919050565b6000610885600f83610a0b565b91507f416c726561647920636c61696d656400000000000000000000000000000000006000830152602082019050919050565b60006108c5602083610a0b565b91507f4f776e61626c653a2063616c6c6572206973206e6f7420746865206f776e65726000830152602082019050919050565b6000610905601183610a0b565b91507f4e6f7420656e6f75676820616d6f756e740000000000000000000000000000006000830152602082019050919050565b61094181610a5a565b82525050565b600060208201905061095c6000830184610803565b92915050565b60006040820190506109776000830185610803565b6109846020830184610938565b9392505050565b600060208201905081810360008301526109a481610812565b9050919050565b600060208201905081810360008301526109c481610878565b9050919050565b600060208201905081810360008301526109e4816108b8565b9050919050565b60006020820190508181036000830152610a04816108f8565b9050919050565b600082825260208201905092915050565b6000610a2782610a3a565b9050919050565b60008115159050919050565b600073ffffffffffffffffffffffffffffffffffffffff82169050919050565b6000819050919050565b610a6d81610a1c565b8114610a7857600080fd5b50565b610a8481610a2e565b8114610a8f57600080fd5b50565b610a9b81610a5a565b8114610aa657600080fd5b5056fea264697066735822122021c53b4df198d96964bb9e6c9d2a93987b1680ee41b882af12fef2d3ccfcfe7864736f6c63430008000033",
  "immutableReferences": {},
  "source": "pragma solidity ^0.8.0;\n\nimport \"@openzeppelin/contracts/token/ERC20/IERC20.sol\";\nimport \"@openzeppelin/contracts/access/Ownable.sol\";\n\ncontract Faucet is Ownable {\n    address private _renaToken;\n    uint256 private _renaAmount;\n    mapping(address => bool) private _renaClaimed;\n    \n    constructor(address renaToken, uint256 amount) {\n        _renaToken = renaToken;\n        _renaAmount = amount;\n    }\n\n    function claim() public {\n        require(_renaClaimed[msg.sender] == false, \"Already claimed\");\n        require(IERC20(_renaToken).balanceOf(address(this)) > _renaAmount, \"Not enough amount\");\n\n\n        IERC20(_renaToken).transfer(msg.sender, _renaAmount);\n        _renaClaimed[msg.sender] = true;\n    }\n\n    function transferOut(uint256 amount, address receiver) onlyOwner public {\n        IERC20(_renaToken).transfer(receiver, amount);\n    }\n}",
  "sourcePath": "/Users/khanhtiet/Projects/learning-practices/blockchain/demo03/projects/contracts/Faucet.sol",
  "compiler": {
    "name": "solc",
    "version": "0.8.0+commit.c7dfd78e.Emscripten.clang"
  },
  "schemaVersion": "3.4.3",
  "updatedAt": "2021-09-13T15:01:47.326Z",
  "networkType": "ethereum",
  "devdoc": {
    "kind": "dev",
    "methods": {
      "owner()": {
        "details": "Returns the address of the current owner."
      },
      "renounceOwnership()": {
        "details": "Leaves the contract without owner. It will not be possible to call `onlyOwner` functions anymore. Can only be called by the current owner. NOTE: Renouncing ownership will leave the contract without an owner, thereby removing any functionality that is only available to the owner."
      },
      "transferOwnership(address)": {
        "details": "Transfers ownership of the contract to a new account (`newOwner`). Can only be called by the current owner."
      }
    },
    "version": 1
  },
  "userdoc": {
    "kind": "user",
    "methods": {},
    "version": 1
  }
}