{
  "contractName": "Warena",
  "abi": [
    {
      "inputs": [
        {
          "internalType": "string",
          "name": "_name",
          "type": "string"
        },
        {
          "internalType": "string",
          "name": "_symbol",
          "type": "string"
        }
      ],
      "stateMutability": "nonpayable",
      "type": "constructor"
    },
    {
      "anonymous": false,
      "inputs": [
        {
          "indexed": true,
          "internalType": "address",
          "name": "owner",
          "type": "address"
        },
        {
          "indexed": true,
          "internalType": "address",
          "name": "approved",
          "type": "address"
        },
        {
          "indexed": true,
          "internalType": "uint256",
          "name": "tokenId",
          "type": "uint256"
        }
      ],
      "name": "Approval",
      "type": "event"
    },
    {
      "anonymous": false,
      "inputs": [
        {
          "indexed": true,
          "internalType": "address",
          "name": "owner",
          "type": "address"
        },
        {
          "indexed": true,
          "internalType": "address",
          "name": "operator",
          "type": "address"
        },
        {
          "indexed": false,
          "internalType": "bool",
          "name": "approved",
          "type": "bool"
        }
      ],
      "name": "ApprovalForAll",
      "type": "event"
    },
    {
      "anonymous": false,
      "inputs": [
        {
          "indexed": true,
          "internalType": "address",
          "name": "from",
          "type": "address"
        },
        {
          "indexed": true,
          "internalType": "address",
          "name": "to",
          "type": "address"
        },
        {
          "indexed": true,
          "internalType": "uint256",
          "name": "tokenId",
          "type": "uint256"
        }
      ],
      "name": "Transfer",
      "type": "event"
    },
    {
      "inputs": [
        {
          "internalType": "address",
          "name": "to",
          "type": "address"
        },
        {
          "internalType": "uint256",
          "name": "tokenId",
          "type": "uint256"
        }
      ],
      "name": "approve",
      "outputs": [],
      "stateMutability": "nonpayable",
      "type": "function"
    },
    {
      "inputs": [
        {
          "internalType": "address",
          "name": "owner",
          "type": "address"
        }
      ],
      "name": "balanceOf",
      "outputs": [
        {
          "internalType": "uint256",
          "name": "",
          "type": "uint256"
        }
      ],
      "stateMutability": "view",
      "type": "function",
      "constant": true
    },
    {
      "inputs": [
        {
          "internalType": "uint256",
          "name": "tokenId",
          "type": "uint256"
        }
      ],
      "name": "getApproved",
      "outputs": [
        {
          "internalType": "address",
          "name": "",
          "type": "address"
        }
      ],
      "stateMutability": "view",
      "type": "function",
      "constant": true
    },
    {
      "inputs": [
        {
          "internalType": "address",
          "name": "owner",
          "type": "address"
        },
        {
          "internalType": "address",
          "name": "operator",
          "type": "address"
        }
      ],
      "name": "isApprovedForAll",
      "outputs": [
        {
          "internalType": "bool",
          "name": "",
          "type": "bool"
        }
      ],
      "stateMutability": "view",
      "type": "function",
      "constant": true
    },
    {
      "inputs": [],
      "name": "name",
      "outputs": [
        {
          "internalType": "string",
          "name": "",
          "type": "string"
        }
      ],
      "stateMutability": "view",
      "type": "function",
      "constant": true
    },
    {
      "inputs": [
        {
          "internalType": "uint256",
          "name": "tokenId",
          "type": "uint256"
        }
      ],
      "name": "ownerOf",
      "outputs": [
        {
          "internalType": "address",
          "name": "",
          "type": "address"
        }
      ],
      "stateMutability": "view",
      "type": "function",
      "constant": true
    },
    {
      "inputs": [
        {
          "internalType": "address",
          "name": "from",
          "type": "address"
        },
        {
          "internalType": "address",
          "name": "to",
          "type": "address"
        },
        {
          "internalType": "uint256",
          "name": "tokenId",
          "type": "uint256"
        }
      ],
      "name": "safeTransferFrom",
      "outputs": [],
      "stateMutability": "nonpayable",
      "type": "function"
    },
    {
      "inputs": [
        {
          "internalType": "address",
          "name": "from",
          "type": "address"
        },
        {
          "internalType": "address",
          "name": "to",
          "type": "address"
        },
        {
          "internalType": "uint256",
          "name": "tokenId",
          "type": "uint256"
        },
        {
          "internalType": "bytes",
          "name": "_data",
          "type": "bytes"
        }
      ],
      "name": "safeTransferFrom",
      "outputs": [],
      "stateMutability": "nonpayable",
      "type": "function"
    },
    {
      "inputs": [
        {
          "internalType": "address",
          "name": "operator",
          "type": "address"
        },
        {
          "internalType": "bool",
          "name": "approved",
          "type": "bool"
        }
      ],
      "name": "setApprovalForAll",
      "outputs": [],
      "stateMutability": "nonpayable",
      "type": "function"
    },
    {
      "inputs": [
        {
          "internalType": "bytes4",
          "name": "interfaceId",
          "type": "bytes4"
        }
      ],
      "name": "supportsInterface",
      "outputs": [
        {
          "internalType": "bool",
          "name": "",
          "type": "bool"
        }
      ],
      "stateMutability": "view",
      "type": "function",
      "constant": true
    },
    {
      "inputs": [],
      "name": "symbol",
      "outputs": [
        {
          "internalType": "string",
          "name": "",
          "type": "string"
        }
      ],
      "stateMutability": "view",
      "type": "function",
      "constant": true
    },
    {
      "inputs": [
        {
          "internalType": "address",
          "name": "from",
          "type": "address"
        },
        {
          "internalType": "address",
          "name": "to",
          "type": "address"
        },
        {
          "internalType": "uint256",
          "name": "tokenId",
          "type": "uint256"
        }
      ],
      "name": "transferFrom",
      "outputs": [],
      "stateMutability": "nonpayable",
      "type": "function"
    },
    {
      "inputs": [
        {
          "internalType": "uint256",
          "name": "_tokenId",
          "type": "uint256"
        }
      ],
      "name": "tokenURI",
      "outputs": [
        {
          "internalType": "string",
          "name": "",
          "type": "string"
        }
      ],
      "stateMutability": "view",
      "type": "function",
      "constant": true
    },
    {
      "inputs": [
        {
          "internalType": "address",
          "name": "_to",
          "type": "address"
        },
        {
          "internalType": "uint256",
          "name": "_tokenId",
          "type": "uint256"
        },
        {
          "internalType": "string",
          "name": "_tokenURI",
          "type": "string"
        }
      ],
      "name": "mint",
      "outputs": [],
      "stateMutability": "nonpayable",
      "type": "function"
    }
  ],
  "bytecode": "0x60806040523480156200001157600080fd5b50604051620029d2380380620029d2833981810160405281019062000037919062000197565b818181600090805190602001906200005192919062000075565b5080600190805190602001906200006a92919062000075565b50505050506200033b565b8280546200008390620002a7565b90600052602060002090601f016020900481019282620000a75760008555620000f3565b82601f10620000c257805160ff1916838001178555620000f3565b82800160010185558215620000f3579182015b82811115620000f2578251825591602001919060010190620000d5565b5b50905062000102919062000106565b5090565b5b808211156200012157600081600090555060010162000107565b5090565b60006200013c62000136846200023e565b6200020a565b9050828152602081018484840111156200015557600080fd5b6200016284828562000271565b509392505050565b600082601f8301126200017c57600080fd5b81516200018e84826020860162000125565b91505092915050565b60008060408385031215620001ab57600080fd5b600083015167ffffffffffffffff811115620001c657600080fd5b620001d4858286016200016a565b925050602083015167ffffffffffffffff811115620001f257600080fd5b62000200858286016200016a565b9150509250929050565b6000604051905081810181811067ffffffffffffffff821117156200023457620002336200030c565b5b8060405250919050565b600067ffffffffffffffff8211156200025c576200025b6200030c565b5b601f19601f8301169050602081019050919050565b60005b838110156200029157808201518184015260208101905062000274565b83811115620002a1576000848401525b50505050565b60006002820490506001821680620002c057607f821691505b60208210811415620002d757620002d6620002dd565b5b50919050565b7f4e487b7100000000000000000000000000000000000000000000000000000000600052602260045260246000fd5b7f4e487b7100000000000000000000000000000000000000000000000000000000600052604160045260246000fd5b612687806200034b6000396000f3fe608060405234801561001057600080fd5b50600436106100ea5760003560e01c806370a082311161008c578063b88d4fde11610066578063b88d4fde1461025b578063c87b56dd14610277578063d3fc9864146102a7578063e985e9c5146102c3576100ea565b806370a08231146101f157806395d89b4114610221578063a22cb4651461023f576100ea565b8063095ea7b3116100c8578063095ea7b31461016d57806323b872dd1461018957806342842e0e146101a55780636352211e146101c1576100ea565b806301ffc9a7146100ef57806306fdde031461011f578063081812fc1461013d575b600080fd5b610109600480360381019061010491906119ae565b6102f3565b60405161011691906120d9565b60405180910390f35b6101276103d5565b60405161013491906120f4565b60405180910390f35b61015760048036038101906101529190611a00565b610467565b6040516101649190612072565b60405180910390f35b6101876004803603810190610182919061190b565b6104ec565b005b6101a3600480360381019061019e9190611805565b610604565b005b6101bf60048036038101906101ba9190611805565b610664565b005b6101db60048036038101906101d69190611a00565b610684565b6040516101e89190612072565b60405180910390f35b61020b600480360381019061020691906117a0565b610736565b60405161021891906122f6565b60405180910390f35b6102296107ee565b60405161023691906120f4565b60405180910390f35b610259600480360381019061025491906118cf565b610880565b005b61027560048036038101906102709190611854565b610a01565b005b610291600480360381019061028c9190611a00565b610a63565b60405161029e91906120f4565b60405180910390f35b6102c160048036038101906102bc9190611947565b610b50565b005b6102dd60048036038101906102d891906117c9565b610b69565b6040516102ea91906120d9565b60405180910390f35b60007f80ac58cd000000000000000000000000000000000000000000000000000000007bffffffffffffffffffffffffffffffffffffffffffffffffffffffff1916827bffffffffffffffffffffffffffffffffffffffffffffffffffffffff191614806103be57507f5b5e139f000000000000000000000000000000000000000000000000000000007bffffffffffffffffffffffffffffffffffffffffffffffffffffffff1916827bffffffffffffffffffffffffffffffffffffffffffffffffffffffff1916145b806103ce57506103cd82610bfd565b5b9050919050565b6060600080546103e490612525565b80601f016020809104026020016040519081016040528092919081815260200182805461041090612525565b801561045d5780601f106104325761010080835404028352916020019161045d565b820191906000526020600020905b81548152906001019060200180831161044057829003601f168201915b5050505050905090565b600061047282610c67565b6104b1576040517f08c379a00000000000000000000000000000000000000000000000000000000081526004016104a890612236565b60405180910390fd5b6004600083815260200190815260200160002060009054906101000a900473ffffffffffffffffffffffffffffffffffffffff169050919050565b60006104f782610684565b90508073ffffffffffffffffffffffffffffffffffffffff168373ffffffffffffffffffffffffffffffffffffffff161415610568576040517f08c379a000000000000000000000000000000000000000000000000000000000815260040161055f90612296565b60405180910390fd5b8073ffffffffffffffffffffffffffffffffffffffff16610587610cd3565b73ffffffffffffffffffffffffffffffffffffffff1614806105b657506105b5816105b0610cd3565b610b69565b5b6105f5576040517f08c379a00000000000000000000000000000000000000000000000000000000081526004016105ec906121b6565b60405180910390fd5b6105ff8383610cdb565b505050565b61061561060f610cd3565b82610d94565b610654576040517f08c379a000000000000000000000000000000000000000000000000000000000815260040161064b906122b6565b60405180910390fd5b61065f838383610e72565b505050565b61067f83838360405180602001604052806000815250610a01565b505050565b6000806002600084815260200190815260200160002060009054906101000a900473ffffffffffffffffffffffffffffffffffffffff169050600073ffffffffffffffffffffffffffffffffffffffff168173ffffffffffffffffffffffffffffffffffffffff16141561072d576040517f08c379a0000000000000000000000000000000000000000000000000000000008152600401610724906121f6565b60405180910390fd5b80915050919050565b60008073ffffffffffffffffffffffffffffffffffffffff168273ffffffffffffffffffffffffffffffffffffffff1614156107a7576040517f08c379a000000000000000000000000000000000000000000000000000000000815260040161079e906121d6565b60405180910390fd5b600360008373ffffffffffffffffffffffffffffffffffffffff1673ffffffffffffffffffffffffffffffffffffffff168152602001908152602001600020549050919050565b6060600180546107fd90612525565b80601f016020809104026020016040519081016040528092919081815260200182805461082990612525565b80156108765780601f1061084b57610100808354040283529160200191610876565b820191906000526020600020905b81548152906001019060200180831161085957829003601f168201915b5050505050905090565b610888610cd3565b73ffffffffffffffffffffffffffffffffffffffff168273ffffffffffffffffffffffffffffffffffffffff1614156108f6576040517f08c379a00000000000000000000000000000000000000000000000000000000081526004016108ed90612176565b60405180910390fd5b8060056000610903610cd3565b73ffffffffffffffffffffffffffffffffffffffff1673ffffffffffffffffffffffffffffffffffffffff16815260200190815260200160002060008473ffffffffffffffffffffffffffffffffffffffff1673ffffffffffffffffffffffffffffffffffffffff16815260200190815260200160002060006101000a81548160ff0219169083151502179055508173ffffffffffffffffffffffffffffffffffffffff166109b0610cd3565b73ffffffffffffffffffffffffffffffffffffffff167f17307eab39ab6107e8899845ad3d59bd9653f200f220920489ca2b5937696c31836040516109f591906120d9565b60405180910390a35050565b610a12610a0c610cd3565b83610d94565b610a51576040517f08c379a0000000000000000000000000000000000000000000000000000000008152600401610a48906122b6565b60405180910390fd5b610a5d848484846110ce565b50505050565b6060610a6e82610c67565b610aad576040517f08c379a0000000000000000000000000000000000000000000000000000000008152600401610aa490612276565b60405180910390fd5b600660008381526020019081526020016000208054610acb90612525565b80601f0160208091040260200160405190810160405280929190818152602001828054610af790612525565b8015610b445780601f10610b1957610100808354040283529160200191610b44565b820191906000526020600020905b815481529060010190602001808311610b2757829003601f168201915b50505050509050919050565b610b5a838361112a565b610b6482826112f8565b505050565b6000600560008473ffffffffffffffffffffffffffffffffffffffff1673ffffffffffffffffffffffffffffffffffffffff16815260200190815260200160002060008373ffffffffffffffffffffffffffffffffffffffff1673ffffffffffffffffffffffffffffffffffffffff16815260200190815260200160002060009054906101000a900460ff16905092915050565b60007f01ffc9a7000000000000000000000000000000000000000000000000000000007bffffffffffffffffffffffffffffffffffffffffffffffffffffffff1916827bffffffffffffffffffffffffffffffffffffffffffffffffffffffff1916149050919050565b60008073ffffffffffffffffffffffffffffffffffffffff166002600084815260200190815260200160002060009054906101000a900473ffffffffffffffffffffffffffffffffffffffff1673ffffffffffffffffffffffffffffffffffffffff1614159050919050565b600033905090565b816004600083815260200190815260200160002060006101000a81548173ffffffffffffffffffffffffffffffffffffffff021916908373ffffffffffffffffffffffffffffffffffffffff160217905550808273ffffffffffffffffffffffffffffffffffffffff16610d4e83610684565b73ffffffffffffffffffffffffffffffffffffffff167f8c5be1e5ebec7d5bd14f71427d1e84f3dd0314c0f7b2291e5b200ac8c7c3b92560405160405180910390a45050565b6000610d9f82610c67565b610dde576040517f08c379a0000000000000000000000000000000000000000000000000000000008152600401610dd590612196565b60405180910390fd5b6000610de983610684565b90508073ffffffffffffffffffffffffffffffffffffffff168473ffffffffffffffffffffffffffffffffffffffff161480610e5857508373ffffffffffffffffffffffffffffffffffffffff16610e4084610467565b73ffffffffffffffffffffffffffffffffffffffff16145b80610e695750610e688185610b69565b5b91505092915050565b8273ffffffffffffffffffffffffffffffffffffffff16610e9282610684565b73ffffffffffffffffffffffffffffffffffffffff1614610ee8576040517f08c379a0000000000000000000000000000000000000000000000000000000008152600401610edf90612256565b60405180910390fd5b600073ffffffffffffffffffffffffffffffffffffffff168273ffffffffffffffffffffffffffffffffffffffff161415610f58576040517f08c379a0000000000000000000000000000000000000000000000000000000008152600401610f4f90612156565b60405180910390fd5b610f63838383611415565b610f6e600082610cdb565b6001600360008573ffffffffffffffffffffffffffffffffffffffff1673ffffffffffffffffffffffffffffffffffffffff1681526020019081526020016000206000828254610fbe919061243b565b925050819055506001600360008473ffffffffffffffffffffffffffffffffffffffff1673ffffffffffffffffffffffffffffffffffffffff168152602001908152602001600020600082825461101591906123e5565b92505081905550816002600083815260200190815260200160002060006101000a81548173ffffffffffffffffffffffffffffffffffffffff021916908373ffffffffffffffffffffffffffffffffffffffff160217905550808273ffffffffffffffffffffffffffffffffffffffff168473ffffffffffffffffffffffffffffffffffffffff167fddf252ad1be2c89b69c2b068fc378daa952ba7f163c4a11628f55a4df523b3ef60405160405180910390a4505050565b6110d9848484610e72565b6110e58484848461141a565b611124576040517f08c379a000000000000000000000000000000000000000000000000000000000815260040161111b90612116565b60405180910390fd5b50505050565b600073ffffffffffffffffffffffffffffffffffffffff168273ffffffffffffffffffffffffffffffffffffffff16141561119a576040517f08c379a000000000000000000000000000000000000000000000000000000000815260040161119190612216565b60405180910390fd5b6111a381610c67565b156111e3576040517f08c379a00000000000000000000000000000000000000000000000000000000081526004016111da90612136565b60405180910390fd5b6111ef60008383611415565b6001600360008473ffffffffffffffffffffffffffffffffffffffff1673ffffffffffffffffffffffffffffffffffffffff168152602001908152602001600020600082825461123f91906123e5565b92505081905550816002600083815260200190815260200160002060006101000a81548173ffffffffffffffffffffffffffffffffffffffff021916908373ffffffffffffffffffffffffffffffffffffffff160217905550808273ffffffffffffffffffffffffffffffffffffffff16600073ffffffffffffffffffffffffffffffffffffffff167fddf252ad1be2c89b69c2b068fc378daa952ba7f163c4a11628f55a4df523b3ef60405160405180910390a45050565b61130182610c67565b611340576040517f08c379a000000000000000000000000000000000000000000000000000000000815260040161133790612276565b60405180910390fd5b60001515600782604051611354919061205b565b908152602001604051809103902060009054906101000a900460ff161515146113b2576040517f08c379a00000000000000000000000000000000000000000000000000000000081526004016113a9906122d6565b60405180910390fd5b806006600084815260200190815260200160002090805190602001906113d99291906115c4565b5060016007826040516113ec919061205b565b908152602001604051809103902060006101000a81548160ff0219169083151502179055505050565b505050565b600061143b8473ffffffffffffffffffffffffffffffffffffffff166115b1565b156115a4578373ffffffffffffffffffffffffffffffffffffffff1663150b7a02611464610cd3565b8786866040518563ffffffff1660e01b8152600401611486949392919061208d565b602060405180830381600087803b1580156114a057600080fd5b505af19250505080156114d157506040513d601f19601f820116820180604052508101906114ce91906119d7565b60015b611554573d8060008114611501576040519150601f19603f3d011682016040523d82523d6000602084013e611506565b606091505b5060008151141561154c576040517f08c379a000000000000000000000000000000000000000000000000000000000815260040161154390612116565b60405180910390fd5b805181602001fd5b63150b7a0260e01b7bffffffffffffffffffffffffffffffffffffffffffffffffffffffff1916817bffffffffffffffffffffffffffffffffffffffffffffffffffffffff1916149150506115a9565b600190505b949350505050565b600080823b905060008111915050919050565b8280546115d090612525565b90600052602060002090601f0160209004810192826115f25760008555611639565b82601f1061160b57805160ff1916838001178555611639565b82800160010185558215611639579182015b8281111561163857825182559160200191906001019061161d565b5b509050611646919061164a565b5090565b5b8082111561166357600081600090555060010161164b565b5090565b600061167a61167584612342565b612311565b90508281526020810184848401111561169257600080fd5b61169d8482856124e3565b509392505050565b60006116b86116b384612372565b612311565b9050828152602081018484840111156116d057600080fd5b6116db8482856124e3565b509392505050565b6000813590506116f2816125f5565b92915050565b6000813590506117078161260c565b92915050565b60008135905061171c81612623565b92915050565b60008151905061173181612623565b92915050565b600082601f83011261174857600080fd5b8135611758848260208601611667565b91505092915050565b600082601f83011261177257600080fd5b81356117828482602086016116a5565b91505092915050565b60008135905061179a8161263a565b92915050565b6000602082840312156117b257600080fd5b60006117c0848285016116e3565b91505092915050565b600080604083850312156117dc57600080fd5b60006117ea858286016116e3565b92505060206117fb858286016116e3565b9150509250929050565b60008060006060848603121561181a57600080fd5b6000611828868287016116e3565b9350506020611839868287016116e3565b925050604061184a8682870161178b565b9150509250925092565b6000806000806080858703121561186a57600080fd5b6000611878878288016116e3565b9450506020611889878288016116e3565b935050604061189a8782880161178b565b925050606085013567ffffffffffffffff8111156118b757600080fd5b6118c387828801611737565b91505092959194509250565b600080604083850312156118e257600080fd5b60006118f0858286016116e3565b9250506020611901858286016116f8565b9150509250929050565b6000806040838503121561191e57600080fd5b600061192c858286016116e3565b925050602061193d8582860161178b565b9150509250929050565b60008060006060848603121561195c57600080fd5b600061196a868287016116e3565b935050602061197b8682870161178b565b925050604084013567ffffffffffffffff81111561199857600080fd5b6119a486828701611761565b9150509250925092565b6000602082840312156119c057600080fd5b60006119ce8482850161170d565b91505092915050565b6000602082840312156119e957600080fd5b60006119f784828501611722565b91505092915050565b600060208284031215611a1257600080fd5b6000611a208482850161178b565b91505092915050565b611a328161246f565b82525050565b611a4181612481565b82525050565b6000611a52826123a2565b611a5c81856123b8565b9350611a6c8185602086016124f2565b611a75816125e4565b840191505092915050565b6000611a8b826123ad565b611a9581856123c9565b9350611aa58185602086016124f2565b611aae816125e4565b840191505092915050565b6000611ac4826123ad565b611ace81856123da565b9350611ade8185602086016124f2565b80840191505092915050565b6000611af76032836123c9565b91507f4552433732313a207472616e7366657220746f206e6f6e20455243373231526560008301527f63656976657220696d706c656d656e74657200000000000000000000000000006020830152604082019050919050565b6000611b5d601c836123c9565b91507f4552433732313a20746f6b656e20616c7265616479206d696e746564000000006000830152602082019050919050565b6000611b9d6024836123c9565b91507f4552433732313a207472616e7366657220746f20746865207a65726f2061646460008301527f72657373000000000000000000000000000000000000000000000000000000006020830152604082019050919050565b6000611c036019836123c9565b91507f4552433732313a20617070726f766520746f2063616c6c6572000000000000006000830152602082019050919050565b6000611c43602c836123c9565b91507f4552433732313a206f70657261746f7220717565727920666f72206e6f6e657860008301527f697374656e7420746f6b656e00000000000000000000000000000000000000006020830152604082019050919050565b6000611ca96038836123c9565b91507f4552433732313a20617070726f76652063616c6c6572206973206e6f74206f7760008301527f6e6572206e6f7220617070726f76656420666f7220616c6c00000000000000006020830152604082019050919050565b6000611d0f602a836123c9565b91507f4552433732313a2062616c616e636520717565727920666f7220746865207a6560008301527f726f2061646472657373000000000000000000000000000000000000000000006020830152604082019050919050565b6000611d756029836123c9565b91507f4552433732313a206f776e657220717565727920666f72206e6f6e657869737460008301527f656e7420746f6b656e00000000000000000000000000000000000000000000006020830152604082019050919050565b6000611ddb6020836123c9565b91507f4552433732313a206d696e7420746f20746865207a65726f20616464726573736000830152602082019050919050565b6000611e1b602c836123c9565b91507f4552433732313a20617070726f76656420717565727920666f72206e6f6e657860008301527f697374656e7420746f6b656e00000000000000000000000000000000000000006020830152604082019050919050565b6000611e816029836123c9565b91507f4552433732313a207472616e73666572206f6620746f6b656e2074686174206960008301527f73206e6f74206f776e00000000000000000000000000000000000000000000006020830152604082019050919050565b6000611ee7602f836123c9565b91507f4552433732314d657461646174613a2055524920717565727920666f72206e6f60008301527f6e6578697374656e7420746f6b656e00000000000000000000000000000000006020830152604082019050919050565b6000611f4d6021836123c9565b91507f4552433732313a20617070726f76616c20746f2063757272656e74206f776e6560008301527f72000000000000000000000000000000000000000000000000000000000000006020830152604082019050919050565b6000611fb36031836123c9565b91507f4552433732313a207472616e736665722063616c6c6572206973206e6f74206f60008301527f776e6572206e6f7220617070726f7665640000000000000000000000000000006020830152604082019050919050565b6000612019600c836123c9565b91507f48617368206578697374656400000000000000000000000000000000000000006000830152602082019050919050565b612055816124d9565b82525050565b60006120678284611ab9565b915081905092915050565b60006020820190506120876000830184611a29565b92915050565b60006080820190506120a26000830187611a29565b6120af6020830186611a29565b6120bc604083018561204c565b81810360608301526120ce8184611a47565b905095945050505050565b60006020820190506120ee6000830184611a38565b92915050565b6000602082019050818103600083015261210e8184611a80565b905092915050565b6000602082019050818103600083015261212f81611aea565b9050919050565b6000602082019050818103600083015261214f81611b50565b9050919050565b6000602082019050818103600083015261216f81611b90565b9050919050565b6000602082019050818103600083015261218f81611bf6565b9050919050565b600060208201905081810360008301526121af81611c36565b9050919050565b600060208201905081810360008301526121cf81611c9c565b9050919050565b600060208201905081810360008301526121ef81611d02565b9050919050565b6000602082019050818103600083015261220f81611d68565b9050919050565b6000602082019050818103600083015261222f81611dce565b9050919050565b6000602082019050818103600083015261224f81611e0e565b9050919050565b6000602082019050818103600083015261226f81611e74565b9050919050565b6000602082019050818103600083015261228f81611eda565b9050919050565b600060208201905081810360008301526122af81611f40565b9050919050565b600060208201905081810360008301526122cf81611fa6565b9050919050565b600060208201905081810360008301526122ef8161200c565b9050919050565b600060208201905061230b600083018461204c565b92915050565b6000604051905081810181811067ffffffffffffffff82111715612338576123376125b5565b5b8060405250919050565b600067ffffffffffffffff82111561235d5761235c6125b5565b5b601f19601f8301169050602081019050919050565b600067ffffffffffffffff82111561238d5761238c6125b5565b5b601f19601f8301169050602081019050919050565b600081519050919050565b600081519050919050565b600082825260208201905092915050565b600082825260208201905092915050565b600081905092915050565b60006123f0826124d9565b91506123fb836124d9565b9250827fffffffffffffffffffffffffffffffffffffffffffffffffffffffffffffffff038211156124305761242f612557565b5b828201905092915050565b6000612446826124d9565b9150612451836124d9565b92508282101561246457612463612557565b5b828203905092915050565b600061247a826124b9565b9050919050565b60008115159050919050565b60007fffffffff0000000000000000000000000000000000000000000000000000000082169050919050565b600073ffffffffffffffffffffffffffffffffffffffff82169050919050565b6000819050919050565b82818337600083830152505050565b60005b838110156125105780820151818401526020810190506124f5565b8381111561251f576000848401525b50505050565b6000600282049050600182168061253d57607f821691505b6020821081141561255157612550612586565b5b50919050565b7f4e487b7100000000000000000000000000000000000000000000000000000000600052601160045260246000fd5b7f4e487b7100000000000000000000000000000000000000000000000000000000600052602260045260246000fd5b7f4e487b7100000000000000000000000000000000000000000000000000000000600052604160045260246000fd5b6000601f19601f8301169050919050565b6125fe8161246f565b811461260957600080fd5b50565b61261581612481565b811461262057600080fd5b50565b61262c8161248d565b811461263757600080fd5b50565b612643816124d9565b811461264e57600080fd5b5056fea2646970667358221220e2aa04787e706cc9e063a02afe7e7dea109c196640da1f4e897578e9139db30464736f6c63430008000033",
  "immutableReferences": {},
  "source": "pragma solidity ^0.8.0;\n\nimport \"@openzeppelin/contracts/token/ERC721/ERC721.sol\";\n\ncontract Warena is ERC721 {\n    mapping(uint256 => string) private _tokenURIs;\n    mapping(string => bool) private flagExisted;\n\n    constructor(string memory _name, string memory _symbol)\n        public\n        ERC721(_name, _symbol)\n    {}\n\n    function _setTokenURI(uint256 _tokenId, string memory _tokenURI) internal {\n        require(\n            _exists(_tokenId),\n            \"ERC721Metadata: URI query for nonexistent token\"\n        );\n\n        require(flagExisted[_tokenURI] == false, \"Hash existed\");\n\n        _tokenURIs[_tokenId] = _tokenURI;\n        flagExisted[_tokenURI] = true;\n    }\n\n    function tokenURI(uint256 _tokenId)\n        public\n        view\n        virtual\n        override\n        returns (string memory)\n    {\n        require(\n            _exists(_tokenId),\n            \"ERC721Metadata: URI query for nonexistent token\"\n        );\n\n        return _tokenURIs[_tokenId];\n    }\n\n    function mint(\n        address _to,\n        uint256 _tokenId,\n        string memory _tokenURI\n    ) public {\n        super._mint(_to, _tokenId);\n        _setTokenURI(_tokenId, _tokenURI);\n    }\n}\n",
  "sourcePath": "/Users/khanhtiet/Projects/learning-practices/blockchain/demo03/projects/contracts/Warena.sol",
  "compiler": {
    "name": "solc",
    "version": "0.8.0+commit.c7dfd78e.Emscripten.clang"
  },
  "schemaVersion": "3.4.3",
  "updatedAt": "2021-09-13T15:01:47.318Z",
  "networkType": "ethereum",
  "devdoc": {
    "kind": "dev",
    "methods": {
      "approve(address,uint256)": {
        "details": "See {IERC721-approve}."
      },
      "balanceOf(address)": {
        "details": "See {IERC721-balanceOf}."
      },
      "getApproved(uint256)": {
        "details": "See {IERC721-getApproved}."
      },
      "isApprovedForAll(address,address)": {
        "details": "See {IERC721-isApprovedForAll}."
      },
      "name()": {
        "details": "See {IERC721Metadata-name}."
      },
      "ownerOf(uint256)": {
        "details": "See {IERC721-ownerOf}."
      },
      "safeTransferFrom(address,address,uint256)": {
        "details": "See {IERC721-safeTransferFrom}."
      },
      "safeTransferFrom(address,address,uint256,bytes)": {
        "details": "See {IERC721-safeTransferFrom}."
      },
      "setApprovalForAll(address,bool)": {
        "details": "See {IERC721-setApprovalForAll}."
      },
      "supportsInterface(bytes4)": {
        "details": "See {IERC165-supportsInterface}."
      },
      "symbol()": {
        "details": "See {IERC721Metadata-symbol}."
      },
      "transferFrom(address,address,uint256)": {
        "details": "See {IERC721-transferFrom}."
      }
    },
    "version": 1
  },
  "userdoc": {
    "kind": "user",
    "methods": {},
    "version": 1
  }
}